:1010000000830020E9380100CB3F0200D538010001
:10101000D5380100D5380100D538010000000000A6
:10102000000000000000000000000000C5390100C1
:10103000D538010000000000B93B0100D53801009F
:10104000313C010087640200313C0100313C010069
:10105000313C0100313C0100313C0100313C0100D8
:101060009D640200313C0100313C0100B364020088
:10107000313C0100313C0100313C0100313C0100B8
:10108000313C0100313C0100313C0100313C0100A8
:10109000313C0100313C0100313C0100313C010098
:1010A000313C0100313C0100313C0100313C010088
:1010B000313C0100313C0100313C0100313C010078
:1010C000313C0100313C0100313C0100313C010068
:1010D000313C0100313C0100313C0100313C010058
:1010E000313C0100313C0100313C0100313C010048
:1010F000313C0100313C0100313C0100313C010038
:10110000054B1B780022013382600260034A426073
:10111000C371FF2303727047E00D00202001080017
:10112000064B074A9B7802604FF416728280C371A7
:101130000822002382710372704700BFE00D002077
:1011400031DE0000F8B5C71D002827F00707054667
:1011500014BF3846002000F06FFA041E02DA6FF068
:101160000B00F8BD2E4EF188B088737A327A0331C5
:10117000033089B280B20AF0DFFA0028EFDBB178E1
:10118000F37827440337002D194427F0030700FBA9
:1011900001F114BF3846002000F0D4FB07440DB91C
:1011A000002FDCDB01203C4600F03CFA90B1F17AE4
:1011B00081B10737002D27F0070414BF2046002017
:1011C0002523282204F06CFA0028C8DB04440DB95A
:1011D000002CC4DBB37AABB1012000F023FA88B154
:1011E000F37A7BB10734002D24F0070414BF2046A6
:1011F0000020B17A03F076F80028B0DB04440DB982
:10120000002CACDBF3683BB115B1F4600020A8E71B
:101210002834A4D42046A4E7002DF7D1FAE700BF74
:10122000E00D00201FB572B6194B1D69EDB9BFF373
:101230004F8F1849184BCA6802F4E0621343CB6021
:10124000BFF34F8F00BFFDE72346B2FBF6F25C1CF5
:10125000002AF9D104AEDCB256FA83F303F80C2C61
:101260000A2234B901A8A847E1E7024600230A266A
:10127000EDE7631E04AEDCB256FA83F3B0FBF2F680
:1012800002FB1600303003F80C0C3046E9E700BFD3
:10129000E00D002000ED00E00400FA0507B50A4B60
:1012A0001A89ADF800206846DA889B88ADF80420DA
:1012B000ADF8023001F0ACFE18B1FA219C20FFF726
:1012C000B1FF03B05DF804FBE00D002010B504464B
:1012D00020B309F04FFB10B94FF0FF3010BD07F0FD
:1012E000B9F9B0F5FA7FF7D80E4B00221A751A70CB
:1012F000DA6001225A801B229A80DA8040F20322AF
:101300001A814FF442721C615A81EFF3108472B655
:1013100000F08AFB04B962B60020DFE76FF0150029
:10132000DCE700BFE00D002038B51446002847D1A7
:10133000254D2B7D032B40D071B112B96FF01500F4
:1013400038BD013906293BD8DFE801F0043A133AE9
:10135000293A32001378AB700020FFF7F3FE002823
:10136000B7BF012302232B756FF00B00A8BF2B75AD
:10137000E6E71379002BE1D05379002BDED01288F9
:10138000FB2ADBD863881B3B9BB2E02BD6D81A2AFA
:10139000D4D923686B600D4BA2889A80DCE70120CA
:1013A00000F040F9237808B1012BC7D9EB72D3E7DD
:1013B0001388FF2BC2D8AB72CEE74FF0FF30BFE7E8
:1013C0006FF02C00BCE700BFE00D0020E40D002012
:1013D000F8B50D46064620B319B311F0070420D125
:1013E000114F3B7D012B02D16FF00B00F8BD032B99
:1013F00002D14FF0FF30F9E700F052FB0028F8D09F
:101400002846FFF79FFE0028EEDB0CF05FFD30461C
:10141000F96801F079FEFFF741FF03233B75204691
:10142000E4E76FF01500E1E7E00D002010B5064C91
:10143000237D032B03D101F07FFE02F077FA0AF03F
:10144000D0F90020207510BDE00D002008B501F096
:101450003DFE0549012000F0DDF8BDE808400349E4
:10146000002000F0D7B800BF0111000021110000DA
:10147000074B4FF0FF3141F6FF72C3E900120549F7
:101480000022C1E900221F21C3E90212704700BFF8
:10149000C0040020F80D00203F280CD801380B4B69
:1014A000C0F3421200F01F0053F8223023FA00F07C
:1014B00000F001007047FF2806D04038C0F3421208
:1014C000034B00F01F00EFE701207047C00400202D
:1014D000F80D00200146074B006849681A4603C210
:1014E00040F48C221A6041F0107242F4FF625A609C
:1014F00000207047C00400200246034B006851687A
:1015000003C30020704700BFF80D00200246034BC4
:101510000068516803C30020704700BFC804002062
:101520000138064BC0F3421203EB820300F01F00A8
:101530009B6823FA00F000F001007047C00400200F
:10154000F0B50C88C37C0288A5B2C4F30E0404F184
:1015500018060233865B1A44334497B213FA82F3B7
:10156000013B4288B3FBF7F313FB07439BB29A425C
:10157000044A93BF22EA05032A4013439BB20B801F
:10158000F0BD00BF0080FFFF4A1E062A08B50346D3
:10159000084604D84FF4D1711520FFF743FE094ADD
:1015A000914202D940F2A311F6E711B903B11960D3
:1015B00008BD2BB11B680022C3E901211A1D1A6066
:1015C0000430F5E7FAFFFF7F10B5114B00EB410443
:1015D0001A786389B3FBF2F303FB0223013A1A443E
:1015E000B2F5706F0279807828BF00231A440B1877
:1015F000B2FBF0F100FB11215B1AB3FBF0F100FB31
:10160000113313446FEA43436FEA5343638110BDC0
:10161000000E0020024B03EB80035960704700BFAF
:10162000000E0020034B03EB80035868003818BFFE
:1016300001207047000E00202DE9F04F10F0070A3E
:1016400085B0054604D040F26F111720FFF7EAFD80
:10165000534F07F10C06B1460446B04657F8043B19
:101660008DF80BA03BB101A898479DF80A30082BD4
:1016700001D9F521E9E79DF80B1041BB05B13160B7
:101680004F4506F10406E9D1002D70D0DFF8149122
:10169000002289F800209646022758F827A0013F2B
:1016A000BAF1000F56D09AF804609AF802C0FF2EE3
:1016B00061D039460023481C39D19C44BCF1FF0F4E
:1016C00040D90AB189F800E04FF49A71BDE79DF85E
:1016D0000AC06046022838BF02204B1D5A0004EBA6
:1016E0004303441E2344BDF808406444013CCCF14C
:1016F000000C04EA0C044042B4F5803F03EA000306
:1017000002D340F20511A0E775B19A1A01203260A8
:1017100091701480D0709DF80C00107101981081A8
:101720004FEA104CA2F806C004FB0134A8E758F8B1
:10173000210028B190F804B0B34504BF80781B188D
:101740000139B8E7DBB2E6458AF804303CBF5FFAFE
:101750008CFE01227B1CA0D10AB189F800E0022690
:1017600040F6FF6A58F82670B7B9013EFAD2601BFE
:1017700005B0BDE8F08F0023E5E707EB41033846ED
:10178000A3F80AA0FFF720FF09F10109BB785FFA6F
:1017900089F18B42F1D8E8E74FF00009F6E700BF86
:1017A000040E0020000E002038B54FF6FF730380B2
:1017B000184B03EB810302461869A8B184780379BA
:1017C000B3FBF4F104FB1133DBB2194600EB410526
:1017D000B5F90A50002D0EDB0131B1FBF4F504FB25
:1017E0001511C9B28B42F1D1002038BD6381BDE82B
:1017F000384009F07DBF00EB41046389C3F30E0359
:101800001380C278002AF1D14FF4E5711720FFF759
:1018100009FD00BF000E00201C4B03EB810370B5D7
:101820001C69054644B3030404D54FF4EC7117203A
:10183000FFF7F8FC0146204609F03CFFFF2801466F
:1018400004D02046BDE8704009F052BFA078B5FB37
:10185000F0F300FB1353DBB219460A1D04EB4206FA
:10186000B6F90260002E09DB0131B1FBF0F200FB9A
:101870001211C9B28B42F0D1002070BD8B4201D051
:101880000023E37004EB42025580DAE7000E0020EB
:10189000094B03EB810310B51C690146204609F092
:1018A00009FFFF28014604D02046BDE8104009F09A
:1018B0001FBF002010BD00BF000E0020F8B5104B68
:1018C00003EB810307461C690146204609F0F2FE3E
:1018D000FF28054611D0E288238953EA024606D044
:1018E0000146204609F004FF01463846B04720462D
:1018F0002946FFF769FE0020F8BD0520FCE700BF80
:10190000000E002038B50E4B827903EB82030446AB
:10191000186908B9052038BD8278E1799142F9D279
:101920004B1CE37100EB41035D89B3F90A30002BD6
:10193000F3DBA58009F0DCFE20600020EBE700BFB0
:10194000000E002070B5044610F003000E4603D0D0
:101950004E211820FFF766FCFFF716FE054624B15E
:10196000034831460460FFF70FFE284670BD00BFF4
:101970001C0E00202DE9F14FDFF870B09DF828A073
:101980009DF82C901E46DBF8003007460D46904629
:101990001BB960211820FFF745FC5246092140463B
:1019A00009F00DFD4A4684B20921304609F007FDD1
:1019B00014FA80F1DBF8000009F050FE386018B925
:1019C000286001B0BDE8F08F04442C6038685346AD
:1019D0004146092209F0B6FC28684B4609223146E7
:1019E00001B0BDE8F04F09F0ADBC00BF1C0E0020F7
:1019F00070B50E46044609F0F5FC0546304609F080
:101A0000F1FC044B2A1821461868BDE8704009F023
:101A10004ABE00BF1C0E0020024B186808B109F036
:101A200011BE70471C0E0020134B012200214FF005
:101A3000FF309A60C3F80012C3F80803C3F800151A
:101A4000C3F804259A60C3F80803C3F80015C3F867
:101A500004250A490A4A03F580334FF40040C3F8CD
:101A60000825C1F88000BFF34F8FBFF36F8FC1F817
:101A70008001C3F80825704700F0004000E100E055
:101A80000000F63F024B02681A600020704700BF5A
:101A9000200E0020014B1B68184700BF200E0020BD
:101AA000024B1868003818BF01207047200E002034
:101AB0000A468F2302F8033B0448C368C1F8033089
:101AC0000369536043699360704700BF240E002090
:101AD000024B5A8C02435A845B6A1847240E00203A
:101AE000014B00215B6A1847240E002010B5154CED
:101AF00005F004FE05F0F4FF208DFFF7F1FF237ED3
:101B000063B12246104952F80C3BE36063685360AE
:101B100004F11900A36893600AF022FF218DE06AA6
:101B200002F036FDE36AB3F8AA0002F091FB636BA2
:101B300094F8301094F831009847002384F8383036
:101B400010BD00BF240E0020B11A0000034B93F813
:101B500038300BB1FFF7CABF704700BF240E00201A
:101B600008B5094B93F83820022A04D040F25731C7
:101B70002720FFF757FBDA7A42F00102DA72BDE85C
:101B80000840FFF7B3BF00BF240E002070B50F4D13
:101B9000EE6B3478C90001F0080104F0F304920000
:101BA0000C4302F0040214431B0103F0100304F081
:101BB000EC041C4300F0030004433470B5F84830D3
:101BC00073700223A5F8403070BD00BF240E0020C2
:101BD000F7B5184CE56C06460DB1A36D23B940F678
:101BE000C4012720FFF71EFBB4F85C306B702B7824
:101BF0002F4601F0030123F003030B4307F8033BD7
:101C0000B4F85C20A16D384609F072F90DF10202BA
:101C100001A9206E2565A76509F00AFD019809F064
:101C2000F5FCB4F85C1030600122206E09F09DFCD8
:101C300003B0F0BD240E00202DE9F341694CE56AA4
:101C400095F8141150B92A7D94F8673003EB82039C
:101C5000FF2B03D195F815318B4202D0FF2005F000
:101C6000C1FAE66A00238DF80130ADF80230337A0C
:101C7000062B00F2A380DFE803F0047F8282A194A8
:101C8000940094F86830A6F804310DF1020101A81F
:101C9000ADF8023001F0ECFA30B1019820B1052323
:101CA0003372BDF8023013E0E36A93F85130002B31
:101CB0005DD1E06E0DF101020DF1020109F0B9FBF9
:101CC000002854D0BDF80230002B41D101223272DD
:101CD000E063A4F8483003B1C31C6364777A96F8D4
:101CE0000A80367A022E07D0053E012E69D81B786D
:101CF000022B4FF0030666D0E06E09F0F5FB0346B9
:101D0000002862D1032E04D001F0CCFA80F0010348
:101D1000DBB203F0010284F87020EA7C002A56D07E
:101D2000B4F84820002A52D0394642463046FFF7E0
:101D30002DFF606F05F022FCE16B606F05F072FE15
:101D4000012384F8783084F8383002B0BDE8F0819F
:101D50009DF801201AB9028082700323A0E702785F
:101D600002F00302012A0CBF03220222AFE7002384
:101D7000ADF80230012333721B480023A8E7B6F800
:101D80000431E06EADF802300DF101020DF10201F7
:101D900009F04FFB002884D140F2C3512720FFF700
:101DA00041FA0DF1020101A801F062FA08B10198AF
:101DB00010B940F2D251F1E7062371E740F2DC514D
:101DC000ECE7012698E70023A3E70123A1E74246B9
:101DD00039463046FFF7DAFEE06B05F0CFFB05F041
:101DE0007FFEADE7240E0020880E00202DE9F04193
:101DF000404C94F83830012B86B006460F465FFA07
:101E000083F804D040F60C112720FFF70BFAE56A9F
:101E10002B7923B1002129710420FFF759FE2B7A79
:101E2000052B03D134490220FFF752FEE6B9DFB19A
:101E3000E36F30469847B8B194F83030A3B92B7DA2
:101E4000E76A0BB397F8150194F867C00128D5E944
:101E50001E2305F1800105F190050AD0022809D062
:101E600040F225410620D0E706B0BDE8F041FFF77B
:101E70003DBEB04600260120CDE90460CDE902C890
:101E8000CDE9006505F066FD9621012097F8152142
:101E90000CF086F8E56AD4F8803023654FF481733E
:101EA00094F86700A4F854302B7D95F8151100EBD9
:101EB0008300FF2803D195F814318B4201D005F03F
:101EC00091F92B7D7BB1606F05F058FB616F206D40
:101ED00005F0E2FD002005F0BBFB022384F838305A
:101EE00006B0BDE8F081206D05F048FB05F0F8FD77
:101EF000F0E700BF240E0020680E00202DE9F04F0F
:101F0000A14C85B00022CDE90222D4F82CB094F87F
:101F100038200BF1A803022A05460F46019304D08E
:101F200040F6AD112720FFF77DF9226D032092F8CE
:101F300000A05178A4F85C1002440AF00308A4F849
:101F40005400A265002D00F00A8119B1206E09F03D
:101F5000ECFA0146E1649BF80910228D0131C9B207
:101F600081EA9A0642F4007216F00106228541D1F8
:101F70009BF8082022B3032A8BF8091009D8012AFC
:101F80001ED0E06E02A909F079FA90B940F2D4713E
:101F9000C8E7053A012A02D940F2B371C2E701F05D
:101FA00075F910B940F2DE71BCE731460820FFF741
:101FB0008FFDDBE91C21013241F10001CBE91C213D
:101FC000228D002642F400628BF8086022859BF87F
:101FD0001420CAF3C009D2B1B4F85C20BAB105F03C
:101FE00097FD0328FBD0022806D1FFF77FFD05B03F
:101FF000BDE8F08F2E46EAE748B99BF80A2002F0C8
:1020000001024A4503D1012384F83130EDE79BF802
:102010000A0000F00102914555D04FF00009E26C32
:10202000002A40F0AE80B4F85C20B2FA82F2520985
:1020300002EA1A1284F88720002F00F0AB8005F026
:102040005DFBB9F1000F40F0DA800127238D5A06BD
:1020500006D44020FFF744FD238D43F04003238541
:1020600026B1B4F809300133A4F80930002D00F08E
:10207000CB80B4F805300133A4F80530002384F890
:102080008630424802F0D2F8029830B109F0BEFA28
:1020900000220272019901F051FD039B33B100222D
:1020A0001A720C220199039801F016FD002F9CD1A1
:1020B000238D1B069BD48020FFF712FD238D43F058
:1020C0008003238593E7B4F85C20E2B108F1FF3187
:1020D000012918D8218D41F48051218594F884106C
:1020E000914206D294F8302042F0100284F8302059
:1020F00093E7E16C002990D094F8851019B1202065
:10210000FFF7EEFC89E70130B8F1030F8BF80A0006
:102110001AD008F1FF3101290BD8002A3FF47DAF16
:10212000DBE91E21013241F10001CBE91E21A94664
:1021300075E7002A3FF471AFDBE91E21013241F15E
:102140000001CBE91E2168E7228D1149012042F4EC
:1021500080528BF804002285FFF7BAFCECE79BF86D
:1021600014200AB105F010FD94F88620013284F89D
:102170008620228D4FF0000942F4806222854E466F
:102180004DE7012254E700BF240E0020500E00202E
:102190007C0E002094F88620012A3FF650AFE26FB3
:1021A0000120904700283FF44AAF94F83020002ADD
:1021B0007FF445AF628C002A7FF441AF94F8702021
:1021C00022B994F88720002A3FF439AF9BF81320F6
:1021D0001AB10198594609F006FB00209BF814211A
:1021E00096210BF0DDFE0020FFF726FDB9F1000F70
:1021F0003FF42CAF414603A8FFF7EAFC26E741462F
:1022000003A8FFF7E5FC20E7B4F807300133A4F892
:10221000073036E710B5064B93F8382002F0FF047C
:1022200022B91C7602F0ACF9204610BD0C24FBE765
:10223000240E00200A4B0B4A10B51A60FFF7EAFF84
:1022400020B14FF4B1712720FEF7ECFF00F084FFBE
:10225000054CC4F8800000F083FF606710BD00BF2C
:10226000EC170020E4230000240E0020F8B55A4C9F
:10227000054694F8380000F0FF0610B909B102B124
:1022800023B94FF420712720FEF7CCFF63639DF83C
:1022900018306162E26784F88530E56284F8306066
:1022A00084F8866084F8316084F8786066842685D6
:1022B00084F8706084F88760E6636664A4F8486018
:1022C0002665A665A4F85C6004F0BCFF05F008FC78
:1022D00095F91C0105F000F8D5F8D070D5F8C800C4
:1022E00005F000F8384605F03BF995F8240005F0B4
:1022F00003F80AF087FF95F81421384B33F81230B1
:102300004FF47A7103F5FA73B3FBF1F366331918DE
:10231000304605F05FF8324B186805F027F9D5F81C
:10232000BC30E366D5F8C0302366AB7B233B072B7C
:102330004FD9EB7B233B072B4BD9B5F8E630B5F8EB
:10234000EC0095F81411984228BF18460AF0F7F8E7
:1023500095F8E830834228BF034698B295F8E430F8
:10236000984200D3C3B295F8151184F8683005F18E
:10237000DC000AF06CFB2F7D95F81511B5F8F060C4
:102380000AF0DDF80FB9043080B2864228BF064655
:10239000F3B284F8843084F86730EB7C23B12946AB
:1023A00005F1A80009F01FFA0120FFF745FC002302
:1023B00023606360A360EB886380B5F8AA30238054
:1023C00095F824302371D5F818310BB101221A6029
:1023D000F8BD1B23C7E700BF240E0020F87D0200D4
:1023E000EC170020611B0000FD1E0000ED1D000029
:1023F0004D1B000010B5044609F01EFA08B9002074
:1024000010BDE04309F018FA0028F8D0E31683EA7B
:10241000A4635A1E1A42F2D020460AF00DFC182876
:10242000EDD8A3B2B3EB144F04D184EA142313F014
:10243000FF1FE4D0034B6340581E1840003818BFFC
:102440000120DDE7D6BE898EF0B5070CA7F5AA42BC
:10245000144B543A012A03EA90231FD927F4004071
:1024600042F6AA22801A18BF012000221621164621
:102470001F2487EA060562EA0505013510D0DD0351
:10248000ADB245EA5606E503ADB2013945EA52025E
:102490004FEA53034FEA5404EBD1F0BD0020E4E7C8
:1024A0000020FAE7E0FF3F0010B5044608480BF0B3
:1024B000EFF8204607490BF057FA20460BF050F88A
:1024C00020B1204602F01CFF002010BD1220FCE7C6
:1024D000CC0E0020D40E0020304BF0B55A89B0F855
:1024E0006070B0F85E609D89974228BF174696429B
:1024F00028BF16461B2E85B00C462ED0B5F5A47FFE
:102500002DD040F648039D4201A928BF1D4609F081
:1025100009FABDF80A30BB4228BF3B46E380BDF84C
:102520000C30AB4228BF2B462381BDF80630B342A6
:1025300028BF33466380BDF80830AB4228BF2B4626
:10254000A380FF232370E3881B3B9BB2E02B08D9B9
:1025500040F209513920FEF765FE1B2FCED105B0A0
:10256000F0BD63881B3B9BB2E02B02D940F20B51BC
:10257000F0E72389A3F5A4739BB2B3F5E06F02D90A
:1025800040F20D51E6E7A388A3F5A4739BB2B3F51F
:10259000E06FE4D940F20F51DCE700BFAC0E002041
:1025A000014BD888704700BFAC0E0020044BD87C8C
:1025B000C0F3400080F0010000F00100704700BF50
:1025C000AC0E002008B509F00BFF00F0A3FF00F0EF
:1025D000E7FD0AF09DF901F097FE01F0CFF804F055
:1025E000F7FA0E4B0E4800221A600E4B4FF01B11EB
:1025F0001A801A82DA740C4AC3E901014FF4A471FB
:102600001068D960083212F8041C186283F824108C
:1026100007CA283383E8070008BD00BFF017002071
:1026200003021B00AC0E00209C7C0200044B41F610
:102630004C52C3E906221B229A74FFF7C3BF00BFA6
:10264000AC0E0020024B1B6803B118470C207047EA
:10265000F0170020014B93F934007047AC0E0020B6
:10266000034BDA8802801B7983700020704700BF1B
:10267000AC0E002013B583781A2B044608D8042B1F
:1026800004D9124A22FA03F3DB0705D4122017E01B
:10269000292B01D03B2BF9D12088B0F5706FF5D2F2
:1026A00001A909F05BFF68B9019B93F8202102F0B2
:1026B000FF004AB9A27883F82121FF2283F8202164
:1026C00002B010BD0220FBE70C20F9E7200038041F
:1026D0000188A1F11B039BB2E02B0CD84288A2F524
:1026E000A4739BB244F24810834204D8034B0020E9
:1026F00059819A8170471220704700BFAC0E0020AC
:1027000038B50278447802F0010354EA030102F07C
:10271000020201D1112038BDBAB98578002DF9D057
:10272000002B18BF002400E01D46204609F0C7F822
:102730000028EFD0284609F0C2F80028EAD0054B5F
:1027400000209C73DD731882E5E7002BECD0002499
:102750002546EAE7AC0E002013B5008801A909F070
:1027600016FF044620B9019890F832311BB13A2483
:10277000204602B010BD90F85C3003F0FF04002B3F
:10278000F5D190F853309B0703D1FF2380F8323105
:10279000EEE7024954300AF0E3F8E9E72FD10000F0
:1027A000F8B50378032B054602D912242046F8BD5C
:1027B0004378032BF9D8467E0EB11124F6E78378CF
:1027C000012BF2D100F0E2FCC307F6D5AB7813F091
:1027D000010414D0EA78012A3AD82A693E49A2F2C3
:1027E0005370884236D8AC686FF41C7CA4F6C410D1
:1027F000614488422ED8944234BF122400249807A2
:1028000011D5EA78012A27D82A6934498A4225D87D
:10281000A9683348A1F6C41C84451FD8914238BF2B
:1028200012262643F4B259071DD5EB78012B0CD89C
:102830002B692B49A3F6C4128A4211D8AA68A2F6C2
:10284000C41088420CD89A420DD244F01204ADE76D
:102850001224D4E73024D2E71226E2E73026E0E75C
:1028600044F03004A2E7002CA0D12B7E013B062BC4
:102870009BD801212046FFF70BF8064620B940F609
:1028800042413920FEF7CEFC90300BF067F818B1CA
:1028900096F854309A071CD1EA78A978A868B5F858
:1028A00000C02E7E012A1ABFB2FA82F25209022219
:1028B000CB0748BF2F690B4BC3E90B0783F82010E8
:1028C00083F82120A3F822C083F8246083F828101D
:1028D0006CE70C246AE700BF3CF670028FFD7002C3
:1028E000CBF37002AC0E002000B589B043798DF8AF
:1028F000043083798DF8053001238DF80630037894
:102900008DF80730B0F8013040F271214B4303934A
:10291000B0F803204A430D49059291F824108DF830
:102920001C1000218DF81D100949A2F6C4128A421C
:1029300009D8A3F6C4138B4205D801A8FFF730FFCE
:1029400009B05DF804FB3020FAE700BFAC0E0020B0
:102950003C369C002DE9FF410678012E074604D144
:102960004378012B0DD9122469E0002EFBD10121FF
:102970003046FEF78DFF054600287CD140F69A517F
:1029800007E031460020FEF783FF054620B940F6F8
:102990003F513920FEF746FCBB88002B65D10AF079
:1029A00098FD002863D195F8F430002B61D12846BA
:1029B000FFF77AFD04460028D5D131463046DFF8CE
:1029C0000481FEF765FF98F8143006461BB110B974
:1029D00040F65B51DDE7D8F830200392002B41D060
:1029E00096F8F430002B3DD07B88DBBB98F8203084
:1029F0000093D8F82C2098F8221003AB30460AF048
:102A000026FE78B330460AF0D4FF06F140030746AD
:102A100005F14002643653F8041B42F8041BB3422C
:102A2000F9D12846FFF740FD024610B140F6825129
:102A3000AFE70C2F07D10146284603F05FF8204688
:102A400004B0BDE8F08117B140F68B51A1E798F8CA
:102A50002130296D43F0040385F85430284603F0F3
:102A600027F8ECE7BA887988E6E71124E7E73A2403
:102A7000E5E70C24E3E70AF02AFF04460028DED14C
:102A800095F8543095F8892022B195F88A2013439F
:102A900085F88900053B012BD1D82B6D13B940F681
:102AA000AA5176E701210846FEF7F2FE29460646BE
:102AB0004FF4907208F01CFA0423316D86F85430FC
:102AC0003046CCE7AC0E00202DE9F04F457AA9073F
:102AD00089B0044655D545F001054572072D52D8F9
:102AE00000F054FB35EA000040F0A88194F84870EB
:102AF000002F40F0A381012D45D1A369BA4AA3F26A
:102B00005371914200F29881E26893423BD8A28FC0
:102B1000B4F842309A4236D8E38E228E618DA08C72
:102B200008F0DAFE002800F0878123789A1E022A36
:102B300040F28481012B26D813B9A378012B22D827
:102B40006378032B1FD894F84930013B062B1AD821
:102B5000DFF8988201210020FEF79AFE98F81430E1
:102B60000646ABB901210846FEF792FE002818BFC1
:102B7000064606F190000AF0F1FE814610B30C27DC
:102B800002E06A07AAD11227384609B0BDE8F08FE3
:102B900090300AF0E3FE0028E4D0D6E924126FF06A
:102BA00000439A4208BFB1F1FF3FDBD1637A009343
:102BB000E268617804F1180330460AF048FD814666
:102BC0000028CFD030460AF08AFC08B13A27DBE76C
:102BD00030460AF07EFC01460028F7D10DF11200C4
:102BE000FEF7E2FD0546002800F02481BDF8123012
:102BF00002937F4B0DF1140A18681B7905908AF82F
:102C0000043098F8353013B1504600F097FD029922
:102C1000284609F0CBFCD8F81830C5F8DC3094F819
:102C20004A3004EB430340F2E24B988C598D002369
:102C30005A4685F81E310BFB01F10BFB00F001F049
:102C400033FCA5F8C4B105F1A80BC5F8C400C5F85C
:102C5000C00158460AF0F8FF039000F091FA039B78
:102C6000A5F8E630634B98F812C01B6885F8E4C0FD
:102C700010F0200F0EBF1B22B8F80620B8F808107D
:102C8000A5F8062108BF1146A5F808111BB195F952
:102C90001C11029898470123B8F8062098F80510EF
:102CA000A5F8DA30B8F80830019198F804100091CE
:102CB000033303329BB292B205F1C00105F1BC00AF
:102CC000FEF758FED5F8BC3023B940F6F471392030
:102CD000FEF7A8FAD5F8C03013B940F6F571F6E75B
:102CE00008F0BAFDC5F8C80000F076FF20F07F407C
:102CF000C5F8D00094F84A30D8F81C1004EB430310
:102D000028461A8EDB8EA5F8CE30A5F8CC200AF026
:102D100098FF514605F1160009F0B6FC98F83530D9
:102D200013B9FF2385F80D32D8F8383023B10122CA
:102D300005F59171584698472F49584609F094F97E
:102D400000F04AFF0C23B0FBF3F202FB1300C0B209
:102D5000431DDBB2082B9CBF0D30C3B285F8223077
:102D6000284609F050FC28460AF083FFB9F1000F0D
:102D700003D1617830460AF025FC04F1030BA278F8
:102D800021785B4630460AF0CAFB002858D112274A
:102D9000B5F8AA000021FEF791FD00283FF4F4AE3B
:102DA00041F2882193E7DDF8148045456CD0029B01
:102DB00098F8AC2003F0FD00003818BF012008F19E
:102DC000AD03594609F00DFB00285DD098F8B320FB
:102DD00095F8B30008F1B40305F1B40109F001FB63
:102DE000002851D00B27D3E73CF67002AC0E002030
:102DF00021B10200F4170020BA0E0020E368069308
:102E0000637A8DF81490DB0744BFA369079351469A
:102E100048BF0123304648BF8DF814300AF0A4FDA6
:102E200094F8491030460AF077FB2946304602F004
:102E30003FFEA9E60D27A7E63027A5E61127A3E662
:102E4000B9F1000F02D1304602F05AFAA278217887
:102E50005B4630460AF0C3FBB9F1000F02D10423F0
:102E600086F854303565A17801F0FD0100395A46E5
:102E700018BF012130460AF0CDFB23784BB9A27868
:102E800005930292CAF804305046FEF73BFD002835
:102E900089D0B9F1000FB1D0042130460AF069FBA6
:102EA00000287FF471AE0C2772E700BF10B543799C
:102EB000032B94B057D823F002038DF80630D0F8D6
:102EC0000630CDF807304389ADF80B3001238DF87B
:102ED0000D30038802798DF8042040F27121027BC5
:102EE0008DF805204B43049342884A430792847B24
:102EF000417B41EA0421ADF82810047CC17B41EA02
:102F00000421ADF82E10847C417C41EA0421ADF807
:102F10003410047DC17C41EA0421ADF83A10417DB2
:102F2000847D41EA0421ADF84010C17D007E41EA74
:102F30000021ADF8461000218DF84C100C488DF89A
:102F40004E100C4990F824008DF84D00A2F6C412E2
:102F50008A420AD8A3F6C4138B4206D801A8FFF709
:102F6000B3FD14B010BD1220FBE73020F9E700BF1D
:102F7000AC0E00203C369C0038B501210020FEF745
:102F800087FC054620B941F2BB213920FEF74AF9FA
:102F900090300AF0E3FC1D4B1B7D4BB3E0B195F87C
:102FA0005430053B012B17D828460AF002FD044691
:102FB00010B141F2C621E8E7284602F033F995F84E
:102FC000543023F0040385F8543022462146284625
:102FD00002F094FD204638BD01210846FEF758FC5A
:102FE000054610B941F2D221CFE790300AF0B6FC85
:102FF00008B90C24EEE728460AF0DBFC044600285A
:10300000E8D1284602F00EF9E4E700BFAC0E00203C
:103010000278034672B1427862B142881A2A09D90D
:1030200082881A2A06D9044A006850609B88138156
:103030000020704712207047AC0E0020024B02683F
:103040009A610020704700BFAC0E0020024B02685E
:10305000DA610020704700BFAC0E00200378A3F1B6
:103060000A02112A9DBF024A002093741220704761
:10307000AC0E00200378FF2B15D14378FF2B12D123
:103080008378FF2B0FD1C378FF2B0CD1037923F06A
:10309000E0021F2A07D11F2B05D0044A5B0982F8E2
:1030A0002430002070471220704700BFAC0E002073
:1030B00008B5052000F058F80AF0DEFE014B024A80
:1030C0009A6308BDAC0E0020D924000010B50A4C4C
:1030D000072000F049F8201D084908F067FF04F1B7
:1030E0000800074908F062FF04F10C000549BDE83B
:1030F000104008F05BBF00BFE80E00200C05002068
:10310000140500201C05002038B5074C0D4600F0C2
:10311000F9FB6068256008F041FFFFF787FA00F0CF
:1031200073FD0123237438BDE80E0020014B187C89
:10313000704700BFE80E002010B5064CA06808F0EC
:103140002DFFE06808F02AFFFFF73CFA0023237404
:1031500010BD00BFE80E002000487047F90E0020A7
:1031600000487047FB0F0020C208044900F0070028
:1031700001238340885C03438B547047D0040020B4
:10318000014BD3E900017047D0040020034B1868BD
:10319000C0F30020400040F001007047D004002040
:1031A00008B505F057FA084A002332F82310814287
:1031B00005D302EB83029378044A137008BD0133F0
:1031C0000C2BF2D10023F7E7B07C0200FD100020A9
:1031D000024B1878072828BF07207047FD100020F1
:1031E00008B50068B0F8AA30A0F8653190F814313D
:1031F00080F86411012B06D0022B04D04FF43F71EC
:103200000620FEF70FF880F8673190F81531012B92
:1032100001D0022BF2D180F86831BDE808400249A4
:1032200000F25B1009F09CBB53C00000024B00226F
:1032300083F822209A847047FE100020044B93F8F4
:103240002220012A1ABF036001200020704700BF1E
:10325000FE100020054B93F82210012902461DBFE5
:10326000012083F822009A8400207047FE1000207D
:10327000054B024693F8220020B1136009B19B8CE4
:103280000B800120704700BFFE100020044B93F814
:10329000220000229A8410B183F822200120704776
:1032A000FE100020034B93F82200B0FA80F0400992
:1032B000704700BFFE10002050B90A4A1346012093
:1032C00003F8010B0868C2F801008A889A807047E9
:1032D000012805D1034B0A689A608A88D8719A81BF
:1032E000704700BF2411002050B90B4B187888B1EB
:1032F000D3F80120B3F805300A608B8001207047B5
:10330000012806D1044BD87920B19A680A609B89BC
:10331000F3E70020704700BF2411002010B9044BD0
:1033200018787047012806BF014BD87900207047F4
:1033300024110020F7B500238A888DF80600ADF827
:10334000042008680B4A8DF80730019D1478014667
:1033500002F5A872D8B2844201D8082008E052F8D9
:10336000087F5668AE4208BF8F4203F10103F1D1D6
:1033700003B0F0BD3811002030B5094B01465C7830
:10338000002203F20113D0B2844201D8082005E0E4
:1033900013F8015F8D4202F10102F4D130BD00BF8C
:1033A00038110020F0B5254D95F8984189B0224696
:1033B00005F29911684607F09BFD2146684609F021
:1033C0002EF80446B8B300EB4001C9B202A8FEF7DC
:1033D00061FB631E95F8A161DBB2012495F8981199
:1033E00005E0721CB2FBF1F001FB1022D6B206F12F
:1033F00020020DEB020010F8202C002AF1D103EB83
:1034000043012031694406EB46022A4411F8187C36
:1034100082F8A27111F8177C11F8161C82F8A371BA
:1034200082F8A41100F8204C013BAA19DBB2FF2B53
:1034300082F89941D2D109B0F0BD00BF3811002007
:1034400070B5064688B00C46002A4ED0294A92F83C
:10345000A131D01890F8991119B9FF212820FDF752
:10346000E1FE03EB43011144013391F8A251E570F1
:1034700091F8A35191F8A41161710021257180F890
:10348000991192F89811B3FBF1F001FB103382F817
:10349000A13192F8C23123B9174902F5DD7009F064
:1034A0005CFA657905F03F0545F0400565710D2230
:1034B0000021684607F09AFCE3788DF80F302379F5
:1034C0008DF80E3004AA0423694630468DF80D505D
:1034D00007F014FB9DF81F3023709DF81E306370B9
:1034E0009DF81D30A37008B070BD03216018FEF771
:1034F000D1FAD6E738110020A5330000044B5A78E2
:10350000824286BF1B1893F842010020704700BF1B
:1035100038110020064B00224FF461711A8083F8A5
:10352000C32183F8C421A3F8C61183F8C2217047D0
:103530003811002010B51446FFF7FCFE082813D000
:10354000FFF71AFF094B5A7882420DD904B1207057
:10355000184490F83A3190F84A01012B08BF40F026
:10356000010000F0010010BD0120FAE73811002031
:10357000014BB3F8C60170473811002030B50A4B33
:103580005C7884420ED9184490F802012B3003EB8A
:10359000C004A5790D7053F830001060A3889380A3
:1035A000012030BD0020FCE738110020024607480A
:1035B00010B590F8C34124B1417821B1023003F035
:1035C00029FB204610BD0C46FBE700BF3811002048
:1035D000F8B5184C064648B3617804F5A17008F0B8
:1035E0001EFF94F898510746294604F2991008F0F6
:1035F00016FF2D1AEDB2AF421AD800256278EBB251
:103600009A4201D80120F8BDE21892F842215AB935
:10361000062101FB034104EB0313324601F58571DA
:1036200003F18200FFF70CFF0135E7E70546E5E708
:103630000020E8E738110020F0B51B4E7378834274
:1036400089B007460D462CD9331893F8424144BB44
:103650000D222146684607F0C9FBEB788DF80F3044
:103660002B798DF80E3006EB07106B798DF80D3045
:1036700004AA04236946823007F040FA2A789DF8AC
:103680001F309A420AD16A789DF81E309A4205D1BD
:10369000AC789DF81D30E31A5C425C41204609B0CD
:1036A000F0BD0020FBE700BF38110020074B5A781F
:1036B000824209D91A1892F842212AB9062202FB3D
:1036C000003000F5857070470020704738110020E9
:1036D000034B80F874101B680BB140881847704783
:1036E000F8170020036830B50024D3F8C400A3F80D
:1036F0004040B3F8444042F210754443B4FBF1F447
:10370000A3F844404C1E05FB0242B2FBF1F2A3F8C1
:103710004220094AB2FBF1F20132A3F848209A8F05
:1037200005FB02445A6BB4FBF1F450439C63B0FBBD
:10373000F1F0586330BD00BF005A6202054B1B78A0
:1037400033B9054B1A681B79026003710120704779
:103750000020704700130020D8040020054BFF22F2
:103760001A70054A016811600179117100221A70FE
:10377000704700BF00130020D804002007B5064A98
:103780001068009012798DF804206846FFF7E6FF74
:1037900003B05DF804FB00BF21B1020003460846F8
:1037A00071B13F2B0BD8074AD35C03F07F029142E3
:1037B00005D08CBF0120002000EAD3107047012003
:1037C000704700BFF87C0200FF230B7002234B7090
:1037D00083238B70014B1B78CB7070470413002040
:1037E0002DE9F84FD0F80480D8F8186030460C4620
:1037F00007F0FAFE054620B94FF4AA711020FDF734
:1038000011FD0146304607F0FDFEB5F800B01FFA85
:103810008BF7824617B94FF4AC71EFE7224B1B6868
:1038200000F10309D3B998F8023098F80320237007
:103830006378A4F802B002F00F0223F00F031343E1
:1038400023F0C00363709AF8003003F00303012BE8
:103850000FD0022B0DD04FF4BB71CFE7B8F80200A8
:103860003A464946984705460028DCD12846BDE837
:10387000F88F627863F305126270304607F0C8FE75
:10388000054610B94FF4C071B8E7FB2F02D940F2DA
:103890008F11B3E73A464946201D07F029FB304611
:1038A00007F011FEE2E700BFFC17002038B5134C0B
:1038B00010220021201D07F099FA012525741022FD
:1038C00004F10803002104F11400C4E9013307F0F6
:1038D0008DFA84F8205004F11803C4E90533084A2E
:1038E00000236362A36284F82C30C4F82D30C4F83E
:1038F000313084F835301360A36338BD04130020E1
:10390000FC17002010B5084C2378FF2B04D040F2A0
:1039100099111020FDF786FC07F036F92070BDE8FC
:103920001040FFF7C3BF00BFDD04002010B5034CFB
:10393000207807F043F9FF23237010BDDD04002039
:10394000014B187807F04AB9DD040020014B024A08
:103950001A60704700180020E13700002DE9F3419C
:10396000DFF86881054608F11407D8F80830D8F860
:103970001840227A012A22D1D8F8382052B1137A7D
:103980001BB9BF211020FDF74DFCD8F83840C4B951
:10399000002083E01A7A012AFAD04D4A1C46EFF340
:1039A000108172B650680068506001B962B6A342D7
:1039B00008BFC8F83840237A1BB9EE21E2E73A463F
:1039C000EDE7267AF6B205232372731E0B2B6ED811
:1039D000DFE803F06A062235676D3E6D6D6D6D5B45
:1039E000636813B94FF40371CCE720462946984722
:1039F0000420EFF3108272B6237A052BD9B24FF070
:103A0000000359D12372D8F83810A14201D1C8F867
:103A10003830B2BB62B634E0636813B940F21521A6
:103A2000B0E72946204698470346C3F30723012BF6
:103A3000ADF80400C0B22FD0022BDAD11AE06368CF
:103A400013B940F21D219DE7204698470020D0E79A
:103A500063680BB9FE2195E786222A7001225988F6
:103A6000AA706A7100225869A5F80310AA7107F0BC
:103A70002AFD0420D8F83830A34202D10023C8F828
:103A8000383000283FF471AF08E0124B29461B681C
:103A900020469847034668B9267298B102B0BDE83F
:103AA000F0814FF415716DE740F257216AE740F25B
:103AB0005A2167E70220DDE711B940F27B2161E777
:103AC0001846A6E7002B7FF450AF61E704130020EF
:103AD000081300200018002010B51346027A22B106
:103AE00040F202311020FDF79DFB0A46BDE8104070
:103AF0000146014808F00EBF08130020044890F862
:103B00002C301BB90349243008F021BF704700BF97
:103B10000413002005C900000346064890F83C2025
:103B20003AB190F8352022B900F82D3B024908F04F
:103B30000EBF704704130020C937000010B50A46B5
:103B4000037A23B140F20A311020FDF76BFB0146E6
:103B5000BDE810400148072308F0DCBE1813002020
:103B60001346027A0AB1037270470A4601460148B9
:103B700008F0D0BE081300201B234FF01B128384D3
:103B8000038482618382C260038539B94FF4A473D0
:103B9000034AC3844384C261C3820261704700BF89
:103BA00048014801014908F0DBBE00BF67C90000B9
:103BB0000B8BA2F80B304B8BA2F80D308B8BA2F83D
:103BC0000F30CB8BA2F809000249A2F81130104641
:103BD00008F0C0BEB7C90000094AD2E9000343405B
:103BE00083EAB01181EA43214FEAF3435360054B66
:103BF000116058434FEAF06000EB8000704700BF4F
:103C0000E0040020BB79379E10B50A4C0948082112
:103C1000FDF740FFD4E900321343F7D0064CFFF71D
:103C2000DBFF2060FFF7D8FF236860601843F6D001
:103C300010BD00BFE00400204413002038B5A0F1FF
:103C40000A03DBB2432B144698BF0C4A0D462046AC
:103C500094BFD15CFE2109F004F868B965B12978F8
:103C6000272907D03F2908BF3E212046BDE838401C
:103C700008F0F7BF2621F8E738BD00BF387D020005
:103C8000174B184A9A60184ADA62184A1A61184A99
:103C90005A61184A9A61184A1A63184A5A62184AAD
:103CA000DA64184A9A64184A9A63184B184A9A6058
:103CB000184A1A62184A5A60184A1A60184A9A62D0
:103CC000184ADA62184ADA60184A9A61184A1A637E
:103CD000184A9A64184ADA64184A5A62704700BF50
:103CE0000418002099CD0000D3CF0000A5CF00001C
:103CF0006FCF0000E53F0000A54100009D4000009F
:103D0000C5D00000DDD0000059400000041900209B
:103D1000AFCD000095D00000BFCD0000BBCE0000AD
:103D200023D00000E9CF000041D0000009D00000FE
:103D300051D10000F9D00000F5D00000ABD0000058
:103D4000054B064A1A65064A5A65064B064A1A6525
:103D5000064A5A65704700BF0418002097D2000039
:103D60002BD200000419002015D2000029D3000036
:103D7000054B064A9A65064ADA65064B064A9A6575
:103D8000064A1A66704700BF041800203FC20000B0
:103D900023C300000419002037C1000075C30000D0
:103DA00073B5054601A80E46FFF748FA20B94FF44F
:103DB000AA615120FDF736FA01982222002107F06E
:103DC00015F8019C204600F8036F252E00F2C280F2
:103DD000DFE806F01318383EC0C0C3565A5DC3C3AF
:103DE00062C0C0C0C06EC3C3808097C09EC0C0C048
:103DF000C0C0C0C0C0C0C0A2AEB8294609F068F8B3
:103E0000C0B98CE02E68D6F80832636096F80C32A0
:103E10002372286890F89F3033B908F082FF2B682E
:103E2000DB881844A6F80E02B6F80E3263721B0A3D
:103E3000A3720820FFF70EFA002840F0908040F2AD
:103E40005751B6E72B6893F8213123710220F1E72F
:103E50002B68D3F84C226260D3F85022A260B3F8EA
:103E60005422A281D3F82C22C4F80E20D3F8302299
:103E7000C4F81220D3F89030C4F816301720D9E7D0
:103E80002B6893F8A030E0E700F040F9B8E701466E
:103E9000284600F04DF9B3E71123237159236371CC
:103EA0000023A3713923E371102323720620C1E795
:103EB0002B6893F8A0203AB193F89D20227193F8D3
:103EC0009C3063710320B5E793F89B20227193F82F
:103ED0009A30F6E72B68B3F800212271120A62715A
:103EE000B3F8A220A271120AE271B3F8FC20227288
:103EF000120A6272B3F8A030A3721B0AE37209209F
:103F000098E72B6893F82E21227193F82F31D8E788
:103F1000294608F069F973E7124B1B6813B940F2A0
:103F2000495146E701462A4623209847042081E765
:103F30000C4B1B68002BF2D001462A4624209847E0
:103F4000052077E7074B1B68002BE8D001462A467F
:103F50002520F4E740F244512BE701206AE702B044
:103F600070BD00BF041A00203F289ABF024B53F8CF
:103F700020000020704700BF041800203F289ABF8F
:103F8000024B53F820000020704700BF04190020A6
:103F9000F7B50568D5F8BC6004464FF6FF770DF11C
:103FA00002010DF101023046ADF8027007F041FA4E
:103FB00001A9304607F062FA48B1019807F026FBE4
:103FC0002168A83100220272FFF7B8FDE7E7044933
:103FD00005F1280003B0BDE8F04008F0BBBC00BF0D
:103FE0002DCD000010B503689A7B1E2A04462CD103
:103FF000002283F8512083F84A2083F85622036870
:1040000093F85210B3F8AA0081B11149C3F8A9215D
:1040100083F85220A3F8AA01A3F8AD2103F5D070CC
:1040200008F095FC23680020987310BD0122A3F8C6
:10403000990183F8981183F89F11A3F89C1183F8D4
:104040009B21044903F28F10EAE70220EDE700BF4D
:1040500057CF00003FCF000038B50468E57BBDB9FD
:10406000D1F801200B4BD1F8051013400A4AC4F8CF
:104070006230C3F3076343F008030A4084F86530F5
:10408000C4F8662008F015FE0423E373284638BD03
:104090000125FBE72FC904F76FDB008010B500682E
:1040A000837B042B2ED1D1F80130D1F80540C0F824
:1040B0006230C3F3076343F0080380F865300023E0
:1040C0004A1CC0F8664080F84A30837380F8333168
:1040D00090F8713103F0FF040BB1002010BDB0F86F
:1040E000AA30A0F8733180F87241D1F80130C0F8DD
:1040F00075315368C0F87931034900F2691008F04E
:1041000026FCEAE70120E9E76BD0000010B5044681
:10411000FFF736F8044A054B02400B40C4F8012073
:10412000C4F80530092010BD2FC904F76FDB0080EB
:1041300037B50C460568FFF723F80A4A0A4B0A40D0
:1041400095F862100192034000930B408DF8003007
:104150006B4603CBC4F801000920C4F8051003B076
:1041600030BD00BF6FDB00802FC904F738B5DB041A
:10417000154604D5037D13B10023436338BD446B5A
:104180000134446308F0C3FF836B9C42F6D30023E1
:10419000436303492846BDE8384008F0E1BB00BF4F
:1041A000B9D0000038B50468A37B012B054601D0C7
:1041B000E37BB3BB94F85330980713D44A7884F860
:1041C0005D204A88A4F85E208A88A4F8602043F025
:1041D000020284F85320DA070ED5134904F1540083
:1041E00008F0BEFB94F85330DB070FD4E37B43B1F8
:1041F00053214020FDF716F894F83231002BECD112
:10420000F0E70123E373284608F053FDA37B012B5D
:104210004FF0000301D0002038BDA37384F84A306A
:10422000F9E70120F8E700BF2FD1000070B505685D
:10423000044602F0ABFC054BE8721B6801461BB15B
:104240002046BDE87040184770BD00BF0C1A002022
:10425000024B1B6803B11847704700BF081A0020C3
:10426000F0B51F4D2B78002414709BB1013B6D6895
:10427000DBB21E1B012E0FDC05EBC40655F83470B3
:1042800076688E4208BF874227D0B84271EB060697
:1042900012D214700020F0BD1E19771005EBC70E66
:1042A00055F837C0DEF804708445C6F347068F41E1
:1042B0002CBF33463446DCE705EBC30455F83350D6
:1042C00064688C4208BF854206D0A84271EB0404A2
:1042D00028BF01331370DDE71C4614700120DAE7B4
:1042E0005C13002010F0070208B503D063214820BA
:1042F000FCF798FF18B1034B197258601A70C80088
:1043000008BD00BF5C130020014B00221A707047EB
:104310005C130020014B00221A6070476C130020D0
:1043200008B5044B186810B9FFF7F4FF08BD0C205E
:10433000FCE700BF6C130020024B1879003818BF4F
:10434000012070476C13002013B5CDE90012054B16
:10435000FF225A7100F11003DDE9000183E8030038
:1043600002B010BD6C130020C3693BB983692BB93F
:10437000034B1B681B1A5842584170470120704775
:104380006C13002030B50D4AFF231371D0E906539A
:1043900073B1D0E902140C44D9689D612144D960FD
:1043A000816939B1CB610023C0E90633137130BD97
:1043B0001560F5E7002BF6D0D960F4E76C13002008
:1043C00010B5124AFF231371C16189B91368836163
:1043D00003B1D8611060C1690023C36099B1CB6893
:1043E0007BB18468A3420AD230213720FCF71AFF40
:1043F0008B6988618361002BEDD0D861EBE71B1BD3
:10440000C3600023CB600023137110BD6C13002028
:10441000014B1868704700BF6C130020034B1B68EA
:10442000002003B9704718469B69FAE76C13002017
:104430000B4B00221B6830B504464FF0FF35104689
:1044400023B911B9002808BF104630BDDA68A2426E
:1044500003D3AA423CBF154618461A469B69EFE7AC
:104460006C13002070B50F4CFF232371036A1BB13E
:1044700081689D68A94203D2E5213720FCF7D2FE6E
:10448000C2698669DA619E6152B193619A691AB113
:10449000D361C26811444A1BDA600023237170BDE6
:1044A0002360F3E76C130020F8B52A4E04464FF062
:1044B000000C084686F805C0002135680B4685B912
:1044C0007579002DF6D15BB1984225D3B0FBF3F19D
:1044D000013C03FB01F51C44B4FBF3F48C420ED900
:1044E000F8BD2F690BB19F4207D23B4627B94FF465
:1044F000A3713720FCF796FEA98AAD69DFE7B5FB0B
:10450000F3F603FB165626B9B5FBF2F602FB165678
:10451000DEB10139ED1AE1E7451E1D44B3FBF4F4A9
:10452000B5FBF0F5AC42DBD3B3FBF5F605FB163774
:104530004FB9B6FBF2F702FB176727B9B6FBF1F7E5
:1045400001FB17671FB10135ECE72846C8E7304685
:10455000C6E700BF6C130020FF230B70074A0D2332
:104560004B7082238B701368C1F803305368C1F815
:1045700007309368C1F80B30704700BF72130020FA
:1045800002481622002106F031BC00BF7213002041
:10459000F8B5154D6B7D044623B3D0E96C7608F071
:1045A00031FE94F81421114B114933F81230663062
:1045B0004FF47A7203F23F63B3FBF2F3DB1946F177
:1045C00000061B18B4F8AA206B6046F10006E388C9
:1045D0002A80AE606B8005F10C000222BDE8F84035
:1045E000FFF7BEBAF8BD00BF72130020F87D0200CD
:1045F00059450000024B1B68002283F87020704769
:104600008813002008B502F0C1FA014B187008BDEC
:10461000E8040020024B18686C3001F087B800BF36
:104620008813002038B50F4CFFF7F4FF656801F0E0
:1046300053F863682860186820B940F2F5413220C9
:10464000FCF7F0FD09F03DF810B940F2F741F6E74C
:1046500002F094FF002002F0FBFF636804221A714D
:1046600038BD00BF8813002070B52B4C6368064628
:10467000186809F026F8054620B941F2C431322005
:10468000FCF7D0FD236893F8543013B941F2CA31D6
:10469000F5E776B108F0B4F830B163681A79022A08
:1046A0000ED841F24A31EAE7284608F0C1F800285E
:1046B000F3D163681A79022A17D841F2AA31DEE7EA
:1046C0001A79082A02D941F24B31D8E71B79A2683E
:1046D00003F180431269033B284652F82330984780
:1046E0000C2812D941F2DD31C9E71A79082A02D91A
:1046F00041F2AB31C3E71B79A26803F180435269F1
:10470000033B52F823309847EAE7A368DB68BDE82B
:10471000704053F8203018478813002008B5074B25
:1047200093F900207F2A04D140F29B313220FCF71C
:1047300079FD02707F221A7008BD00BFE8040020D6
:1047400010B504788EB004F00F04224604A908F0D6
:10475000D9FFFFF757FF042C33D11B4C059A236870
:10476000107893F8741088422BD1507893F8751014
:10477000884226D1907893F87610884221D1D0785B
:1047800093F8771088421CD1107993F878108842FA
:1047900017D1517993F87920914212D19DF82120B7
:1047A00093F87A309A420CD10DF10F00FFF7B6FF63
:1047B0009DF90F300093237C227B606804A908F0E8
:1047C00092FF03200EB010BD8813002010B50D4AD3
:1047D00053681979022904D841F2BC413220FCF710
:1047E00021FD1979082902D941F2BD41F6E71B796B
:1047F000926803F180439268033BBDE8104052F891
:10480000233018478813002010B5054C637B2BB16B
:1048100002F044FF02F030FA0023637310BD00BFC2
:104820008813002010B5064CFFF7EEFF63680122E5
:104830001A71FFF7EFFE2068BDE8104009F0CDB90E
:104840008813002010B500B919B9BDE81040FFF772
:10485000E9BF0D4A53681979082904D841F28C41FF
:104860003220FCF7DFFC19790C2902D941F28D4185
:10487000F6E71B79926803F180435268093BBDE873
:10488000104052F8233018478813002038B52F4CB9
:10489000FFF7C0FE656800F01FFF636828601868B6
:1048A00020B940F252413220FCF7BCFC08F009FF6D
:1048B000054610B940F25441F5E7236893F8893072
:1048C0006BB123681A6D93F88A10C3F8F02093F83F
:1048D00054200A4383F85420002283F88920636817
:1048E0001A795AB11B79012B08D02068002109F0F0
:1048F00067F818B9BDE83840FFF794BF2368144A39
:1049000093F88830D05C02F0F7FC0121252002F0FA
:1049100069FC284602F032FE0121084602F0FAFC4A
:10492000E81CFEF743FE607320B102F08BF94020D3
:1049300002F0A8FE626800230821E373A3732374C6
:10494000D380032321735171137138BD8813002064
:104950007C7D020070B5384C63681B79012B0546DD
:1049600004D940F6FC013220FCF75CFC02F06AFC42
:1049700002F094FE02F080F9304802F0F7FD304872
:1049800002F0EEFD2F4802F0ADFC6B7A23B12368F4
:104990001B6E0BB101221A602B7A032B02D140F659
:1049A0002E11E0E7206893B9032190F8882090F851
:1049B00049500E460132B2FBF6F303EB4303D31A20
:1049C000DAB245FA03F3DB072BD580F8882090F99B
:1049D000580002F081FCFFF759FF256895F8483030
:1049E000F3B1D5E920126FF000439A4208BFB1F14C
:1049F000FF3F15D003F0AEFED5E920239042994148
:104A00000ED3236893F8483083B92568FEF7B0FDCC
:104A1000044603F09FFE0C4BE4FB0301C5E92001B3
:104A200070BD013911F0FF01C4D1CEE70120FEF7BE
:104A3000CFFD0028F4D0E8E788130020745300006D
:104A400055555500D6BE898E40420F002DE9F843DA
:104A5000604F06467869D7F80080002303704370E2
:104A6000894602F0A7FD054630B90320FFF754F848
:104A700000252846BDE8F8837C69032E23782FD1D2
:104A800023F00F0343F0030323700C236370786952
:104A9000D8F87430C0F80930B8F87830A0F80D3084
:104AA00098F87A1007F0A2FE3B6893F8482093F834
:104AB000418003F14209002A68D14C467869236895
:104AC000C0F80330A388A0F80730414607F085FE00
:104AD000414BD3F80431002B6CD002F08FFCC4E7BB
:104AE00023F02F0343EA49133968222243F00503D8
:104AF000627023700B6DD3F8C830C4F80F300B6DA3
:104B0000D3F8D020E274100A120C20756275B3F845
:104B1000D82040F2E240B2FBF0F2A275D3F8D420E4
:104B2000B2FBF0F2E275C2F307222276D3F8C4207A
:104B3000B2FBF0F26276C2F30722A276B3F8CC2081
:104B4000E276120A2277B3F8CE206277120AA277B1
:104B5000D3F81720C4F81F20DB7E84F823300B6DB8
:104B600094F8242093F8223022F01F0203F01F0350
:104B7000134384F82430FEF72BFB94F8243003F021
:104B80001F0343EA401384F8243080E793F854204D
:104B900052070CD593F84B204AB193F84C00FEF71E
:104BA00085FD0446002888D04FF0010886E77B6821
:104BB0005879F4E7052E7FF45CAF3B6821681A6DE5
:104BC000C2F8B410A188A2F8B8101B6D83F8B380A6
:104BD0004FE700BF881300200010004010B50021EF
:104BE0000320FFF733FF18B9BDE81040FFF71ABEE6
:104BF000074C0321206808F0E3FE0028F4D00121CF
:104C0000084602F071FD636809221A7110BD00BFE9
:104C10008813002070B5164C6368186808F051FDC1
:104C2000064620B940F261513220FCF7FBFA636876
:104C300020680A221A71002100F070FF23681B6DA2
:104C40009D7D3378C3F340131D4029460520FFF7AF
:104C5000FDFE18B9BDE87040FFF7E4BD20680421EF
:104C600008F0AEFE0028F5D023681B6D9D7570BD61
:104C7000881300202DE9F04F734C95B00546FFF7DF
:104C8000C1FC236893F8543013F0060F04D00122BE
:104C90009621002009F084F92E7806F00F062846A8
:104CA00032460AA908F02EFD0B9D55B39DF8393008
:104CB000012B50D16B7903F0C003A3F140056B4287
:104CC0006B41627B4AB143B1656807F0BFFB636823
:104CD00068715B7923730123A3736368587908288B
:104CE0003BD10B999DF8390008F059FA62680B998D
:104CF000054605329DF83900FEF71CFC6368002864
:104D00003DD0226892F8543013F0030106D0062EED
:104D10009DBF92F84A102943C9B20021606801F092
:104D2000010113F00403817106D0062E9DBF92F895
:104D30004B301D43EBB2002303F00103C3710B9B07
:104D4000F3B19DF8391082F87A10196851679B8881
:104D5000A2F8783014E00023B3E708AA0DF11F0190
:104D6000FEF70CFC20B940F6A5313220FCF75AFAC8
:104D70009DF81F0008A908F012FA0546C1E7D8807F
:104D8000062E00F2C680DFE816F06100E40007009E
:104D9000C400C400C400240002F030FB266896F86A
:104DA0005430980713D06568AB7983B108A8FFF732
:104DB000B5FC9DF920300293237B0193FF230093E0
:104DC000022206F142030AA9284608F07CFC0325CA
:104DD0001DE06568AB79002B00F09B80266896F893
:104DE0005420910719D508A8FFF798FC9DF92030A9
:104DF0000293237B0193FF230093284606F142038D
:104E000006220AA908F05FFC002323740925FFF796
:104E1000FBFC284615B0BDE8F08FD30779D55707BE
:104E200001D502F0EBFA08A8FFF778FC9DF92020E5
:104E300023680292227B0192FF22009242330622D3
:104E400060680AA9C1E700BF88130020236893F8AF
:104E50005420560738D56168CA79002A34D00B9A95
:104E600093F85A001578854256D1557893F85B002F
:104E7000854251D1957893F85C0085424CD1D57824
:104E800093F85D00854247D1157993F85E0085421D
:104E900042D1507993F85F2090423DD19DF839205E
:104EA00093F85900151A6A426A4193F8560001288E
:104EB0004DD0002A4BD193F84C30082B02D04A79C0
:104EC0009A4244D002F09AFA6568AB79002B3CD044
:104ED000266896F85420900720D508A8FFF71EFCF6
:104EE0009DF920300293237B0193FF2300932846F2
:104EF00006F1420300220AA908F0E5FB012323740E
:104F000009256368DA79002A81D19B79002B7FF427
:104F10007EAF02F073FA5AE70022C6E7D10714D534
:104F2000530701D502F06AFA08A8FFF7F7FB9DF9CD
:104F3000202023680292227B0192FF220092606867
:104F4000423300220AA908F0BEFB0325D9E70A254F
:104F5000D7E7616822688B799DF83A00059392F84B
:104F6000483091F807B0012883F0010A40F0A8808A
:104F70000C98477907F0C007A7F1400CDCF1000757
:104F800047EB0C0792F85400460740F19B8092F8DB
:104F90004B00002800F0968092F84C50082D00F04D
:104FA00093802846FEF7AAFA4AEA00005FFA80FAE0
:104FB000002F00F08B800C992846FEF73DFB06463B
:104FC000216891F8542091F8418055074ED50B9AED
:104FD00091F85A00157885427AD1557891F85B009E
:104FE000854275D1957891F85C00854270D1D5786D
:104FF00091F85D0085426BD1157991F85E0085428C
:1050000066D1507991F85F20904261D19DF8395076
:1050100091F85920A81A4542454162685279082AF8
:1050200058D091F84C90A9EB0202D2F1000949EB5B
:105030000209002E51D1BAF1000F50D00C9B9DF8FF
:105040003A204231404607F0CCF9BBF1000F0BD0BB
:10505000236893F85630012B56D02BB9002D53D12D
:1050600010B1B9F1000F51D102F0C8F9236893F8DB
:1050700054309B073FF4ABAE02F0C0F9059B002B08
:105080003FF4A5AE20680C9B9DF83A2000F1420148
:1050900090F8410007F0A5F9256800B90EB308A8FB
:1050A000FFF73CFB9DF920300293237B019348EAF4
:1050B00046085FFA88F30093012205F14203BFE638
:1050C00000275FE74D7969E7002679E73E4677E7F5
:1050D0000025A2E74FF00009ABE70120B5E7304615
:1050E000B3E795F85530023B012B3FF670AE002F29
:1050F0003FF46DAE08A8FFF711FB9DF92030029335
:10510000237B0193FE23D6E70028ADD00A257EE657
:1051100073B5414CFFF778FB236800225A721A6D71
:10512000B2F8AA10598140F2E240D2F8C410B1FBA3
:10513000F0F11984B2F8CC10B2F8CE209A844FF472
:105140007F42DA844FF6FF7259841A856069694696
:1051500007F03CFB236893F8482003F11405EAB1FB
:1051600062691278520619D59DF8052002F0C00236
:10517000402A13D10098BDF804205861AA80207BF2
:10518000082803F10E0239D003F10D01FEF7F6F9FC
:1051900038B941F213413220FCF744F800225A6139
:1051A000ECE723685A7B42F002025A735A6FC3F845
:1051B0001A20B3F87820DA83186D93F95810A830C4
:1051C000FEF786FA2068154907F0C1FB20681449EC
:1051D000036DB3F8AA20A0F833209B7D80F835300A
:1051E0002A3007F0BDFB2068022100F097FCFFF792
:1051F00011FA02B0BDE87040FFF7FCB993F87A10DD
:105200005973596FC3F80E10B3F8781091800021CC
:10521000C3F81A10D983CFE7881300208BD300007E
:1052200047D30000036D10B5044623B940F2613145
:105230003220FBF7F7FF02224272B3F8AA30438113
:10524000FF2380F827304FF6FF730385024907F0EC
:105250007EFB0023236510BD8BD30000F8B5064606
:10526000FDF77AFF174F012178610020FCF7D4FA8F
:10527000054620B940F685013220FBF7D3FF4FF4F5
:105280009072002105F0B2FD01210846FCF7C4FA36
:10529000044620B14FF49072002105F0A7FDBB68D1
:1052A00013B940F68F01E7E7304608F01DF92846AC
:1052B00008F052FB24B12046BDE8F84008F04CBB92
:1052C000F8BD00BF88130020014B024A9A60704766
:1052D00088130020D8530000036810B523B940F6A6
:1052E00077113220FBF79EFF044A13606C33536042
:1052F0009368BDE810401B68184700BF8813002062
:1053000038B5044690F8400000F0FD00003818BFA2
:10531000012084F8410004F14201FDF7E5FF94F813
:105320004030023BDBB2012B94BF0123002384F801
:10533000483015D8FEF71CF9054603F00BFA094B67
:10534000E5FB030194F84830C4E9200143B1002093
:10535000FEF73EF920B940F621213220FBF762FF2B
:1053600038BD00BF40420F000149363007F0F2BAA5
:1053700069D30000CD4700006946000045480000A1
:10538000AFD40000254600001151000099D4000060
:1053900087D40000F5450000254800005DD30000DB
:1053A0008D4800005DD300005DD300005DD3000098
:1053B0005DD300005DD30000DD4B0000154C000004
:1053C0005DD300005DD30000754C00004147000034
:1053D000C1D40000B3D4000055490000845300003C
:1053E0008C53000094530000C8530000D0530000B9
:1053F00008B506F0EDF9054AD2E84F3F0133DBB2BC
:10540000C2E8413F0029F7D108BD00BFA01300202A
:105410002DE9F84F1E46474B04689DF828709DF80B
:105420002C809DF930909DF834A093461A780D4653
:105430000021016032B95868A4F10801BDE8F84FB5
:10544000FFF7D6BF1A2204F1090005F0CFFC0123B3
:10545000A372BBF1060F3CD8DFE80BF00420263B1B
:10546000303B2A00E37A23F0130343F01303E37283
:1054700001232375FF23A375B8F1080F4FF07F03B5
:1054800084F81890E37504F10E0246D004F10D0182
:105490004046FEF773F808BBC3211CE0E37A23F013
:1054A000150343F01503E2E7E37A43F01003DEE768
:1054B000E37A23F0120343F01203D8E7E27A4AF0CA
:1054C0001A0A22F01B020AF01B0A42EA0A02E272DE
:1054D000CEE740F246413320FBF7A4FE637B43F066
:1054E00002036373E37A5B0720D5BA1E012A8BBFE0
:1054F000AA6832681168E26188BFE16104F11C03A7
:1055000094BFB28892889A80E776002323720A4972
:105510002046BDE8F84F07F01DBA6B7C63736B68DB
:105520001968C4F80E109B889380DBE7FF23E376AD
:10553000EBE700BFA01300203D5500002DE9F0432C
:1055400005468DB00C4600200121FCF7A1F9064666
:1055500020B94FF4F1713320FBF764FE903008F06E
:10556000FDF94E4FA5F1080818B196F85430042BF8
:1055700017D1304607F0ADFF98B978684146FFF77C
:1055800037FF4FF40073ADF804309DF8043000206D
:1055900063F307009DF8053063F30F200DB0BDE8FD
:1055A000F08302A905F1230008F0DDF8EE7A16F089
:1055B000100604F10D0906D09DF8186005993246D1
:1055C000484605F095FCEB7AD90601D45B21C2E789
:1055D00013F0040FAA7A95F80DC04FF03E0304F1C2
:1055E000060105F10E002AD095F81BE0BEF1FE0F72
:1055F00025D123700B23A3701301023363700123A1
:10560000E270237184F805C0D5F80E30C4F8063076
:1056100083888B8084F80CE0EB69C4F80D302B8C08
:10562000A9F804302B7EE37478684146FFF7E0FE6A
:10563000237923F0600323714FF40173A3E72370F0
:105640000223A37006F10A0313FB02F30233637013
:10565000E27084F805C0D5F80E30C4F806308388AF
:105660008B80267326442B7E7373EA7A12F008012E
:1056700002D004232371D7E702F00303032B01D1E7
:105680002171D1E7520701D50123F3E7022BF1D0B5
:105690000BB90323EEE7A4215DE700BFA0130020B0
:1056A000233270B592B205460C461E4606F058F8F5
:1056B00025B1034A556014725672147070BD00BF54
:1056C000A013002010B5034C606806F06BF8237A35
:1056D000237010BDA013002038B5134D686806F084
:1056E00067F8044620B940F257113320FBF79AFDC2
:1056F000D5E84F3F013BDBB2C5E8413F0029F7D178
:1057000004F108052322284605F070FB7F23E37788
:10571000FF23A377637584F82330E37C012262F3CF
:105720004613E374284638BDA0130020016810B565
:10573000044631B1034B08395868FFF759FE00237E
:10574000236010BDA01300202DE9F04F8FB09846C4
:10575000BDF86030059304468A46914602F0FAFF90
:10576000D4F8B430039107462046049308F022F899
:105770000546B8F1000F00F06E81B9F1000F00F09E
:10578000E380804617F5FA630693039B43F1000616
:10579000FEF744FE8346594604F1C8000790FEF721
:1057A0000FFED4F8F01011B1079808F049F9CDB107
:1057B000D4F8D050BBF1000F17D0DBE90031DBF893
:1057C0000800C018069B41F10001CDE900362A46C9
:1057D00007F0EFFC8542034608D240F24D3121200C
:1057E000FBF720FDD4F8B050E4E75B46D4F8B010E6
:1057F000069A9D1801F2CF721344B3FBF1F301FB3B
:1058000003F346F10006EB1A66F10002C4E93232F6
:10581000059B002B40F08D804FF0FF326FF000436E
:10582000C4E92423204607F0B2FFD4F89030D4F81E
:10583000941005935A1B834661EB0600012A70F110
:1058400000034FF00003C0F2F680DDF810C094456D
:10585000834100DB0492049BD4F8B400834228BF48
:1058600003460493C4F8BC30B9F1000F05D0D4E965
:105870003223C4E92656C4E92A230423C4E928565E
:10588000C4F8B8B02A468AF8093020463346069153
:1058900007F099FFCAF804B08AF80800B8F1000FC1
:1058A00000F0D48001238AF80030059B039A069902
:1058B000DB1B61EB0202012B72F100004FF00000D4
:1058C000C0F2BB80794D9D42904100DB1D46D4F86B
:1058D000F030D4F8B060002B40F0B48007222046AE
:1058E000A6FB022807F066FF002800F0A880D4E994
:1058F0002630D21848EB00030399974271EB03005E
:105900000DD2D21B6FF0010063EB010390424FF008
:105910000000984102D3954228BF15462E46CAF88A
:105920001060049B5B4534BF002001200FB0BDE830
:10593000F08FBDF8142042F2107328463146E2FB86
:105940000301C4E924016DE790B3D4E924126FF098
:1059500000439A4208BFB1F1FF3F24D0204607F030
:1059600016FF039B099017F1F70243F10003CDE9FD
:105970000C23054640F2024308A88DF82090ADF8AC
:10598000283004F07DF810B940F2964127E7D4E9B9
:1059900024320C995B1A0D9962EB01025B1B62F1D8
:1059A0000002002A40DB039E3D464FF0010839E724
:1059B000D4E93226D4F8B050BB1A5219B3FBF5F330
:1059C00005FB03F346F100069B18A3EB070246F123
:1059D0000006F62A04D8ED1846F10006C84621E76D
:1059E000204607F0D4FE04238DF82930D4E9321381
:1059F000D4F8B050D4F8A0200990521AB2FBF5F2B6
:105A00006A43521843F100032046CDE90C238DF878
:105A1000209007F0D8FE29468DF8280008A806F047
:105A200035FDDDE90C56D9E7039ECDF810903D46D3
:105A30004FF00108F6E604930DE7054647E7D4E981
:105A40002A3056E74FF0FF32134655E7CAE90456AD
:105A50008AF8008065E7B9F1000F7FF493AED4E9CE
:105A600032B1D4F8B080059118EB0B03A7EB0B050E
:105A7000B5FBF8F508FB05F541F100062046ED18E9
:105A8000D4E9262346F1000607F072FE059908FBCB
:105A900000F010EB0B0041F10001C4E932012A468D
:105AA0003346204607F064FE98E700BF0040420FEF
:105AB00038B504460D4690F8F43023B14FF4237105
:105AC0002120FBF7AFFB11B940F28D21F8E70A491D
:105AD0000246F83003F05AFFC4F8F0506B7B03F035
:105AE000FF0113B140F29321EAE784F8F610204653
:105AF000BDE8384008F03EB8A1DA000038B50246EB
:105B000004460D46F830044903F040FF294620467C
:105B1000BDE8384008F02EB8A1DA000001292DE9CF
:105B2000F341044604D9022962D04FF4046135E000
:105B3000D0E9266501F04EFB40F2DA63F6183E4BE1
:105B40005B8803F507534FF47A7245F100053B3348
:105B5000B3FBF2F3F61A65F10005074607F052FBB6
:105B6000BF19D4F8F08000F1660045F100053F1A36
:105B700065F10005D8F8C460FEF74AFC04F1C803DB
:105B800083420ED0CDE900753246D8E96C0107F0AA
:105B900010FB8642034605D240F261312120FBF71B
:105BA00041FB0023254AD4F8F01012689A428FBFB7
:105BB000D1F8C42040F2E240B3FBF0F242438ABF86
:105BC0001846981A9B18C1F8D42041F66A02A1F829
:105BD000D82041F66902904202D94FF4FA61DDE71C
:105BE000DB1945F10005C1E96C3502B0BDE8F08173
:105BF000D0F8F03013B940F2DB71CFE7002540F266
:105C000001125D73A3F81421FF2683F81661D0F802
:105C1000F0002946DC30FDF7AFFFD4F8F00008F0C3
:105C20003DF8C4F8F05084F8F66001F037FC02B09B
:105C3000BDE8F04103F096BEF87D0200AC130020F1
:105C400008B50B4B30B101280DD040F6530121208F
:105C5000FBF7E8FA18601A6841F669039A4206D918
:105C600040F65C01F3E740F6C4121A60F3E708BDA2
:105C7000AC13002038B5094B33F81040084601F04A
:105C8000FDFD054607F0BEFA04F29D74D4302C44A5
:105C90004FF47A73B4FBF3F4204438BDF87D02006E
:105CA0002DE9F84F0C46417D164621F007014C4A7C
:105CB000C26041F0010100224175026194F80E803A
:105CC00005461F461BB10121204600F003FF637B00
:105CD000032B69D8DFE803F002645B6426B940F265
:105CE00017213520FBF79EFA0123637304F1A80006
:105CF00007F096FF4FF0000AD146D4E96C3219EB59
:105D0000030342F10002C4E96C32C5E90032A37B0F
:105D10000A3BDBB21E2B98BF324E20469ABFDE40B4
:105D200006F00106002608F0ABF828B1002E3ED19F
:105D3000607B012818BF022004F1DC0B287558464F
:105D400006F083FEA860002F47D0A8F10C08B8F138
:105D5000010F42D95146284606F0C6FB1FFA80F8CB
:105D6000204608F08DF8074656BB804528D32E758F
:105D7000D4E96C3209FB00F15B1842F10002C5E97D
:105D80000032B9F1000F14D140F29D21A9E7D4F8F7
:105D90001832D4F800A20AEB030903236373ACE7BB
:105DA000D4F8C490CA46A8E74FF4147199E70020CC
:105DB000C2E75146284606F097FB07441FFA87F8CA
:105DC00001224146204600F085FE584606F03DFE81
:105DD000D5E90023A860C4E96C23BDE8F88F00BFB3
:105DE000315E000005000040F7B5104E012333700E
:105DF0000023CDE900336846FBF784FD044618B163
:105E00000023337003B0F0BD009D6B7B002BF2D0FC
:105E100005F5EC77384602F053FD384602F064FD94
:105E20006C7305F5D870FEF7ADFAE4E7B013002007
:105E3000F0B5054687B0A0F5EC7405296BD8DFE80E
:105E400001F003644C6A6A5F637B1BB9EA21352069
:105E5000FBF7E8F9204600F0B7FD00284ED015F812
:105E6000C31C15F8C40C2D4FFFF704FFA5F5987659
:105E700020309528F4697B7894BFC0F1960000200B
:105E8000241A1BB9736B9C4228BF1C46A5F1FC0069
:105E900006F0DBFD00F12005022002F04BFD641B43
:105EA00024EAE474844228BF04460221204602F01A
:105EB0006DFD10B102F054FC254400238F222946C9
:105EC000304606F06DFE7860F06902F045FC14483B
:105ED00007B0BDE8F04003F093BC214668460123BB
:105EE0000022FFF7DDFE6946284602F093FC10B958
:105EF0004FF43471ABE7E3880133E38007B0F0BDC2
:105F000007B0BDE8F04005F095BC637B042BF5D0ED
:105F10004FF483719BE74FF4857198E7B01300202D
:105F20001D770000024B0022C3E90022FFF75CBF8F
:105F3000B0130020014B5870704700BFB013002011
:105F400008B501F047F9044B5A6882422ABF187815
:105F5000002080F0010008BDB013002010B50446F9
:105F600086B0042963D8DFE801F0032522295C000C
:105F7000304B1A7802F0FF03CAB901460122684685
:105F8000FFF78EFE694604F5EC7002F065FC20B95F
:105F90004FF435713520FBF745F9E3880133E38091
:105FA00001F07CFA06B0BDE8104002F081BC042389
:105FB0006373F5E70323637306B010BDD0F8C430F4
:105FC000D0F81C22C0F8003290F81D31C0F8C4206F
:105FD00041F64B518A428CBF002303F0010340F28B
:105FE000E24180F81E31ADF80410B0F8DA30D0F894
:105FF0001812C0F8D410B0F81612A0F8D8105343F5
:10600000D0F82012C0F8CC10019A0093194600F580
:10601000D870FEF799F904F1A80007F001FE0223F9
:10602000C9E7A83006B0BDE8104007F0F9BD40F25E
:106030006531AFE7B01300200D4A0146107890B9E2
:106040000129536807D1B3F80421B3F8E8309A4224
:106050000CD8FFF775BF1289520706D5187C063891
:1060600018BF01207047002070470120704700BF13
:10607000B813002038B5174B1C895A6804431C819B
:1060800000F00304032C04D140F6DF213620FBF797
:10609000C9F8C50748BFD960840706D509680978DB
:1060A0001974062906D00B290ED0820644BF082297
:1060B0001A7038BD917B1C29F7D100240025C2E954
:1060C0001E4501211175F0E7917B1229EDD10021C8
:1060D000F8E700BFB8130020F7B5857B0190A5F164
:1060E0000C03012B044630D8C388B0F814220133C6
:1060F0009BB29A4229D1B0F8AA30A0F8873140F279
:10610000E242D0F81C32B3FBF2F3A0F88931B0F8C8
:106110002032A0F88B310025B0F82232A0F88D3162
:1061200080F88651314900F27D1006F019FC84F8A0
:106130002452B4F82222D4F81C1201A8FDF7D2FA96
:1061400003212046FFF70AFFA573E37B283D282B98
:10615000EDB201D0012D44D8E388B4F81022013308
:106160009B1A1B043DD494F8121294F8143194F83D
:106170001322002908BF19460AB994F8152199423B
:1061800031D194F815319B1A18BF0123012D8CBF12
:106190001E4643F0010684F8141184F81521FF23EC
:1061A00084F81631124B1B6804F1A8070BB138466E
:1061B00098471EB1237B43F001032373384606F052
:1061C0005DFC18B1237B43F00203237304212046B6
:1061D000FFF7C4FE0023012D84F82C3194BFA37374
:1061E000E37303B0F0BD0123D0E700BF9BCE0000F6
:1061F000181A002008B54B78232B02460CD013D870
:10620000142B03D003F0FB0112290DD118460121F4
:10621000BDE8084007F09DBD03689B7B2C2B03D194
:10622000024B1B6803B19847002008BD141A0020D8
:1062300013460A1E08BF1F22162870B51ED009D8A3
:10624000032821D0022803D9122817D0142815D0EA
:10625000002012E025280BD82228F9D920490C6803
:10626000002CF5D0014618462346BDE8704018477B
:10627000A0F1FE0358425841400070BDBDE8704097
:106280001A46002107F065BD1C68A37B192B01D0BD
:10629000132B23D194F8523003BB84F8513084F887
:1062A0004A3094F8973103F0FF0523B14FF4816130
:1062B0003620FAF7B7FFB4F8AA30A4F8993184F879
:1062C000982184F89B51C4F89C5184F85652054992
:1062D00004F28F1006F03BFBA573B9E70220CCE770
:1062E000101A00203FCF00002DE9F743984F804659
:1062F0007C680E46002284F84C20398988055EBFF0
:10630000B4F84020013292B2A4F84020204607F0B1
:10631000FCFC38B10B4604F59B7204F1A801204641
:10632000FDF724FF3B8903F4C06333B1A37C23B999
:106330000121A1742046FFF711FEB8F1000F40F0D3
:10634000D980002E40F0D6803B897D68590705D55D
:106350002A7C062A02BF01227A742E749A0713D56A
:10636000387C0123072885F89F300AD011281FD0D8
:10637000FDF704FE034628B94FF4C3613620FAF74F
:1063800051FF744B744898473B891B0743D57B6882
:1063900093F89E20012A0DD0032A1AD092B9D988E9
:1063A000B3F81402091A0C040CD483F8242209E06F
:1063B0006A4BE7E7DA88B3F80E12521A100401D4D8
:1063C00000229A7393F89E20FE2A11D140F2256193
:1063D000D4E79A7B133AD2B2092A05D840F2412178
:1063E00021FA02F2D107EDD4002283F85622DEE72B
:1063F000FE2283F89E209A7B0C2A2BD0282A2BD0B1
:106400000A2A01D10B229A731A7C072A01BF0222A1
:106410007A7400221A743B89DA0731D5FA687B68EE
:106420001668997B93F85200347807F07FFC28B106
:10643000112C4ED84A4BE340DB074AD51179204650
:10644000FDF7ACF950B9FB6843481A79314606F0BC
:1064500059FC14E00D22D6E72922D4E70D2C32D0C6
:10646000112C32D0072C32D02046FDF77DFD03469B
:106470000028E8D0FA68384812793146984706462D
:106480003B781C0707D5A97B95F8520007F04EFC16
:10649000002818BF08262846FFF71EFE7C6894F8DF
:1064A0009E30FE2B26D1237C063B012B22D994F86B
:1064B000203103F0FF0273B10023A4F8443002231B
:1064C000A4F89E3016E0274BD4E7274BD2E7274BA2
:1064D000D0E70826D4E7A37B002B49D194F83E20CF
:1064E000002A51D01222A4F89E20A4F8463001239D
:1064F00084F84A307C6894F820311BB9237C063B31
:10650000012B04D8B4F844300133A4F8443094F893
:106510004A1021B1B4F846300133A4F8463094F95A
:10652000502022B1B4F84E300133A4F84E30B8F107
:10653000000F40F041827B7C022B00F03982012B5E
:1065400040F0E981637C002B40F0F9810021FFE1FC
:10655000B8130020F5DC0000BC130020DDDC0000D7
:1065600074280200DFDD000017DE0000F561000086
:106570001C2B33D018D8112B2AD0122B22D0032B4E
:106580002ED00F3B102BB5D9E37B222B34D8202BF8
:1065900000F295805A1E032A37D8023B022B79D885
:1065A000DFE803F0866EE800272B1FD0342BE8D1FC
:1065B0001123A4F89E30012384F8A030A4F84620CB
:1065C000A27397E70B23A4F89E30A4F846208EE729
:1065D000D4F82832C4F890300323F4E70623F2E716
:1065E00094F8993084F8A030072369E71823A4F8B9
:1065F0009E30A4F846207DE72C2B00F0BD80342B84
:1066000000F0B180252B00F0948094F89E30FE2B92
:106610007FF470AF7D6895F89E30FE2B00F0AE8061
:10662000A37B002B7FF466AF94F80D32002B3FF470
:1066300061AFE07B06F056FB054600287FF45AAFB9
:10664000E3880A2B7FF656AF6846FDF777F80028F7
:106650003FF450AF052204F11701684604F0A8FB8F
:10666000002800F055819DF80430009884F80C3221
:106670000123C4F80802A4F89E3084F80D5239E7CB
:1066800094F8983084F8A0300723A4F89E300023B3
:10669000E373BAE70C23A4F89E3094F85330002239
:1066A00043F00103A4F84E2084F85330E273ACE7C2
:1066B0001323A4F89E300023A4F84E30E8E794F8A2
:1066C0002331002BA1D194F82231ABB1E37B282BED
:1066D00004F1A80004F5917104F2122227D0A37BE3
:1066E000283B012B8CBF0023012306F0B2F92223A3
:1066F000E373002384F82231E37B222B85D104F15C
:10670000A80006F0BBF918B104F23F10FDF74AFAF1
:10671000B4F8FE30A4F8A030B4F80231A4F8A230E6
:106720001523A4F89E300023A4F84E306DE7012312
:10673000DBE794F82C31012B10D094F82C31022B8C
:106740007FF463AF0023D4F80C21D4F82E119D48B8
:1067500005F030FD1823A4F89E3056E794F82D314B
:10676000002BEAD1EEE71123A4F89E30002384F831
:10677000A030A1E70923EEE72423ECE7AB7B002B55
:106780007FF44EAF95F8243273B1E87B06F0AAFA95
:1067900050B9EB7B332B07D0A5F89E0094F89E30C0
:1067A000FE2B7FF4A7AE3BE795F8563203F0FF02CD
:1067B000ABB1EB7C5BB12B7D13B940F21771DDE51A
:1067C0000A23A5F89E300023A5F846300FE0D5F83F
:1067D0002822C5F890200322A5F89E20F4E795F81A
:1067E000333143B10823A5F89E30A5F84620012394
:1067F00085F84A30D2E795F8323173B195F85330C5
:1068000013F00302CAD10C2143F00103A5F89E1036
:1068100085F8533085F83221C0E795F8223113B35B
:1068200095F82331FBB9EB7B282B05F1A80005F582
:10683000917105F2122214D0AB7B283B012B8CBF47
:106840000023012306F005F9002385F82231B5F86D
:10685000FE20A5F8A020B5F80221A5F8A220142258
:10686000BAE70123EEE795F82C31012B33D195F8E7
:106870002D3183BBE87B06F035FA60BB95F8141127
:10688000012905D0022903D04FF43F71062076E597
:1068900095F81521012A01D0022AF5D1022995F88F
:1068A0002E3106D0012B14BF002301231BB9162360
:1068B00087E7022BF7E7022A95F82F3109D0012B41
:1068C000F5D140480021FCF78BFC002385F82C31E2
:1068D00064E7022BF4E795F8353153B195F82D3183
:1068E00003F0FF022BB9EB7B233B072B01D92323BA
:1068F00079E795F83431012B04D1002385F8343140
:10690000252269E795F83431022B7FF447AFF4E78D
:1069100084F80D02B3E656B1F0064BD431074BD4E0
:10692000B2074BD1B3064BD440F6633126E5B9B17B
:10693000B4F84610B4F84830994211D9222384F8AB
:1069400031302048FDF724FB0023E381A3740221AA
:106950002046FFF703FB03B0BDE8F043FCF796BC0D
:106960002AB1B4F84E20B4F848309A42E6D8B4F8C8
:106970004420B4F842309A420ED2B4F84420B4F81D
:1069800048309A42DAD2A27CB4F840304AB9052B9A
:106990007FF6DCAD3E23D2E794F82031002BCDD139
:1069A000EBE7B4F842209A423FF6D0AD0823C6E7A1
:1069B0001623C4E71E23C2E73D23C0E72A23BEE710
:1069C0002323BCE7BC13002073B53D4D00260446CD
:1069D00068602E812E706E74FF2380F84C30837BAC
:1069E0000A3B012B11D8C388B0F80E229B1A190458
:1069F0000BD400F50271163005F046FEA37B0B2B7D
:106A000008BFA673FF2384F84B30B4F8F821013295
:106A100092B204F1A801204605F07CFE0023A4F800
:106A2000F83194F84A302BB1B4F84620B4F8483025
:106A30009A4214D294F950302BB1B4F84E20B4F8E5
:106A400048309A420BD2B4F84220B4F84430934212
:106A500005D2A17CB4F8403039B9052B07D9002103
:106A60000846FFF741FC002027E09A42F7D994F846
:106A70009E10FE2902D01348FDF792F96C68124A65
:106A8000A17B94F8520007F051F9104B0090104987
:106A90002046FBF7EBFB6C68237BDA0703D509483C
:106AA0000021FCF79DFB237B9B0703D504F23F10DD
:106AB000FDF778F800232373012002B070BD00BFFA
:106AC000B8130020BC13002039600000E962000008
:106AD00075600000B0F8F8310B4470B5A0F8F831DB
